:100000000C9446000C9465000C9465000C946500FB
:100010000C9465000C9465000C9465000C946500CC
:100020000C9465000C9465000C9465000C946500BC
:100030000C9465000C94DE000C9465000C94650033
:100040000C9465000C9465000C9465000C9465009C
:100050000C9465000C9465000C9465000C9465008C
:100060000C9465000C9465000C9465000C9465007C
:100070000C9465000C9465000C9465000C9465006C
:100080000C9465000C9465000C94650011241FBE4F
:10009000CFEFD0E4DEBFCDBF11E0A0E0B1E0EEE2F3
:1000A000F9E000E00BBF02C007900D92A634B10743
:1000B000D9F721E0A6E4B1E001C01D92A335B20753
:1000C000E1F70E94CC020C9495040C940000CF93AD
:1000D000DF9300D01F92CDB7DEB789837B836A831D
:1000E00089818A3031F48A819B81BC018DE00E9434
:1000F000670080EC90E0FC018081882F90E08072A6
:100100009927892BB1F386EC90E02981FC012083AB
:1001100080E090E00F900F900F90DF91CF910895C5
:10012000CF93DF93CDB7DEB781E890E02BE0FC0101
:10013000208388E890E02DE730E0FC0131832083C4
:100140008FE690E022E0FC01208384E890E0FC014F
:100150001182108280910E0190910F01A0911001E7
:10016000B09111018093470190934801A0934901F8
:10017000B0934A018FE590E02FE530E0F90120814E
:100180002068FC0120830000DF91CF910895CF9378
:10019000DF93CDB7DEB781E890E0FC01108200006C
:1001A000DF91CF910895CF93DF93CDB7DEB781E094
:1001B000809346010000DF91CF9108951F920F9226
:1001C00000905F000F92112400905B000F922F931C
:1001D0003F934F935F936F937F938F939F93AF93CF
:1001E000BF93EF93FF93CF93DF93CDB7DEB78091AB
:1001F000470190914801A0914901B0914A010197AE
:10020000A109B1098093470190934801A093490146
:10021000B0934A018091470190914801A091490112
:10022000B0914A01892B8A2B8B2B91F40E94D30029
:1002300080910E0190910F01A0911001B0911101D8
:100240008093470190934801A0934901B0934A01DC
:100250000000DF91CF91FF91EF91BF91AF919F91FE
:100260008F917F916F915F914F913F912F910F905F
:1002700000925B000F9000925F000F901F90189506
:10028000CF93DF9300D000D0CDB7DEB769837A83F8
:100290008B839C8389819A81AB81BC8180930E0181
:1002A00090930F01A0931001B093110180910E0162
:1002B00090910F01A0911001B0911101809347011D
:1002C00090934801A0934901B0934A0100000F9018
:1002D0000F900F900F90DF91CF9108950F931F9380
:1002E000CF93DF9300D000D0CDB7DEB769837A8398
:1002F0008B839C8380914C0190914D01A0914E0184
:10030000B0914F019C01AD0169817A818B819C8103
:100310000E940103882309F477C020E030E0A9019E
:1003200069817A818B819C810E940103882351F429
:1003300081E990E021E930E0F90120812870FC0199
:10034000208309C081E990E021E930E0F9012081B2
:100350002360FC01208328E539E344E75FE36981FA
:100360007A818B819C810E940103882344F488E96F
:1003700090E02FEF3FEFFC013183208334C020E079
:1003800034E244EF56E469817A818B819C810E943A
:100390002304181634F488E990E0FC0111821082DD
:1003A00022C008E910E020E030E040E053E4698139
:1003B0007A818B819C810E942804DC01CB019C0105
:1003C000AD0160E074E284EF9AE40E940603DC0170
:1003D000CB01BC01CD010E947803DC01CB01019768
:1003E000F8019183808384E990E0FC0111821082FE
:1003F00089819A81AB81BC8180934C0190934D019E
:10040000A0934E01B0934F0100000F900F900F90FA
:100410000F90DF91CF911F910F910895CF93DF93AC
:10042000CDB7DEB780E990E020E4FC01208381E9CC
:1004300090E02BE0FC01208360E070E0CB010E94A3
:100440006E010000DF91CF910895CF93DF93CDB778
:10045000DEB780E990E0FC01108281E990E0FC01C8
:1004600010820000DF91CF910895CF93DF93CDB735
:10047000DEB780915101909152018130910581F058
:100480008130910530F083309105C1F0049721F15E
:1004900031C081E090E090935201809351012AC0D5
:1004A00080915001813019F483E090E002C081E036
:1004B00090E090935201809351011CC080915001B3
:1004C000813019F484E090E002C081E090E09093E4
:1004D0005201809351010EC080915001813019F476
:1004E00084E090E002C081E090E09093520180931C
:1004F000510100008091510190915201823091058B
:1005000009F441C08330910530F4009709F43DC0EF
:10051000019739F03DC08330910549F00497B9F156
:1005200037C060E070E0CB010E946E0131C01092D4
:100530004B011FC080914B01882F90E0880F991FBD
:10054000880F991F8E5E9E4FFC0180819181A28150
:10055000B381BC01CD010E946E0100008091460173
:100560008823E1F31092460180914B018F5F8093C5
:100570004B0180914B018D30E8F260E070E0CB01DF
:100580000E946E0105C0000003C0000001C0000011
:100590000000DF91CF910895CF93DF93CDB7DEB701
:1005A00081E290E0FC01108282E290E02FEFFC01FA
:1005B000208384E290E02FEFFC01208385E290E02D
:1005C000FC01108268EC70E080E090E00E94400145
:1005D0000E9490000E940E0210925201109251014E
:1005E00080E290E0FC0180818095809350010000C2
:1005F000809146018823E1F3109246010E94350262
:10060000EFCF0E94AE0308F481E008950E941A0320
:100610000C94E9030E94E20358F00E94DB0340F0CF
:1006200029F45F3F29F00C94D20351110C941D045E
:100630000C94D8030E94FA0368F39923B1F355236D
:1006400091F3951B550BBB27AA27621773078407E5
:1006500038F09F5F5F4F220F331F441FAA1FA9F37B
:1006600035D00E2E3AF0E0E832D091505040E69569
:10067000001CCAF72BD0FE2F29D0660F771F881FCA
:10068000BB1F261737074807AB07B0E809F0BB0BBD
:10069000802DBF01FF2793585F4F3AF09E3F5105D1
:1006A00078F00C94D2030C941D045F3FE4F3983E61
:1006B000D4F3869577956795B795F7959F5FC9F7BA
:1006C000880F911D9695879597F90895E1E0660F3B
:1006D000771F881FBB1F621773078407BA0720F0B4
:1006E000621B730B840BBA0BEE1F88F7E09508951D
:1006F0000E947F036894B1110C941D0408950E9418
:10070000020488F09F5798F0B92F9927B751B0F09D
:10071000E1F0660F771F881F991F1AF0BA95C9F785
:1007200014C0B13091F00E941C04B1E008950C9403
:100730001C04672F782F8827B85F39F0B93FCCF3B6
:10074000869577956795B395D9F73EF49095809502
:10075000709561957F4F8F4F9F4F0895990F0008B7
:10076000550FAA0BE0E8FEEF16161706E807F90783
:10077000C0F012161306E407F50798F0621B730B1E
:10078000840B950B39F40A2661F0232B242B252B9F
:1007900021F408950A2609F4A140A6958FEF811D42
:1007A000811D089597F99F6780E870E060E00895E3
:1007B0009FEF80EC089500240A9416161706180679
:1007C0000906089500240A94121613061406050655
:1007D0000895092E0394000C11F4882352F0BB0FE6
:1007E00040F4BF2B11F460FF04C06F5F7F4F8F4F49
:1007F0009F4F089557FD9058440F551F59F05F3F84
:1008000071F04795880F97FB991F61F09F3F79F032
:1008100087950895121613061406551FF2CF4695B4
:10082000F1DF08C0161617061806991FF1CF869536
:100830007105610508940895E894BB27662777271A
:10084000CB0197F908950E94AE0308F48FEF089545
:100850000E943B040C94E9030E94DB0338F00E94E1
:10086000E20320F0952311F00C94D2030C94D803EA
:1008700011240C941D040E94FA0370F3959FC1F398
:10088000950F50E0551F629FF001729FBB27F00D3E
:10089000B11D639FAA27F00DB11DAA1F649F662793
:1008A000B00DA11D661F829F2227B00DA11D621FE2
:1008B000739FB00DA11D621F839FA00D611D221F9C
:1008C000749F3327A00D611D231F849F600D211D80
:1008D000822F762F6A2F11249F5750409AF0F1F003
:1008E00088234AF0EE0FFF1FBB1F661F771F881F6C
:1008F00091505040A9F79E3F510580F00C94D203CF
:100900000C941D045F3FE4F3983ED4F386957795ED
:100910006795B795F795E7959F5FC1F7FE2B880F11
:0E092000911D9695879597F90895F894FFCF4D
:10092E00000000020000000067000000000001004F
:10093E000000A4D0824300000000A4D08243000037
:10094E0000000000C443000000000000C44300008B
:10095E0000000000DC43000000000000DC4300004B
:06096E0000000000C4437C
:00000001FF
