:100000000C9458000C9477000C9477000C947700B3
:100010000C9477000C9477000C9477000C94770084
:100020000C9477000C9477000C9477000C94770074
:100030000C9477000C94F0000C9477000C947700EB
:100040000C9477000C9477000C9477000C94770054
:100050000C9477000C9477000C9477000C94770044
:100060000C9477000C9477000C9477000C94770034
:100070000C9477000C9477000C9477000C94770024
:100080000C9477000C9477000C94770061023A038B
:1000900068027A029702B402D102EE020B0328032F
:1000A000500357035E0365036C0373037A038103F4
:1000B00011241FBECFEFD0E4DEBFCDBF11E0A0E022
:1000C000B1E0EAEFFAE000E00BBF02C007900D924A
:1000D000A231B107D9F721E0A2E1B1E001C01D9240
:1000E000AF31B207E1F70E948D030C947B050C94AD
:1000F0000000CF93DF9300D01F92CDB7DEB7898386
:100100007B836A8389818A3031F48A819B81BC0137
:100110008DE00E94790080EC90E0FC018081882FC6
:1001200090E080729927892BB1F386EC90E02981C9
:10013000FC01208380E090E00F900F900F90DF9102
:10014000CF910895CF93DF93CDB7DEB781E890E0EC
:100150002BE0FC01208388E890E02DE730E0FC01F3
:10016000318320838FE690E022E0FC01208384E845
:1001700090E0FC011182108280910E0190910F019C
:10018000A0911001B091110180931301909314017B
:10019000A0931501B09316018FE590E02FE530E0B4
:1001A000F90120812068FC0120830000DF91CF91BC
:1001B0000895CF93DF93CDB7DEB781E890E0FC01DF
:1001C00010820000DF91CF910895CF93DF93CDB7D8
:1001D000DEB781E0809312010000DF91CF91089596
:1001E0001F920F9200905F000F92112400905B000D
:1001F0000F922F933F934F935F936F937F938F93C0
:100200009F93AF93BF93EF93FF93CF93DF93CDB7BC
:10021000DEB78091130190911401A0911501B09166
:1002200016010197A109B10980931301909314015C
:10023000A0931501B09316018091130190911401C0
:10024000A0911501B0911601892B8A2B8B2B91F46B
:100250000E94E50080910E0190910F01A091100184
:10026000B09111018093130190931401A093150193
:10027000B09316010000DF91CF91FF91EF91BF91F4
:10028000AF919F918F917F916F915F914F913F912E
:100290002F910F9000925B000F9000925F000F90E3
:1002A0001F901895CF93DF9300D000D0CDB7DEB765
:1002B00069837A838B839C8389819A81AB81BC819A
:1002C00080930E0190930F01A0931001B093110140
:1002D00080910E0190910F01A0911001B091110138
:1002E0008093130190931401A0931501B09316010C
:1002F00000000F900F900F900F90DF91CF91089515
:100300000F931F93CF93DF9300D000D0CDB7DEB70C
:1003100069837A838B839C83809118019091190162
:10032000A0911A01B0911B019C01AD0169817A81F4
:100330008B819C810E94E703882309F477C020E029
:1003400030E0A90169817A818B819C810E94E70359
:10035000882351F481E990E021E930E0F90120811E
:100360002870FC01208309C081E990E021E930E098
:10037000F90120812360FC01208328E539E344E76B
:100380005FE369817A818B819C810E94E7038823E6
:1003900044F488E990E02FEF3FEFFC0131832083A4
:1003A00034C020E034E244EF56E469817A818B81E5
:1003B0009C810E940905181634F488E990E0FC013C
:1003C0001182108222C008E910E020E030E040E015
:1003D00053E469817A818B819C810E940E05DC0146
:1003E000CB019C01AD0160E074E284EF9AE40E94CD
:1003F000EC03DC01CB01BC01CD010E945E04DC01F9
:10040000CB010197F8019183808384E990E0FC019E
:100410001182108289819A81AB81BC8180931801FD
:1004200090931901A0931A01B0931B0100000F9043
:100430000F900F900F90DF91CF911F910F91089522
:10044000CF93DF93CDB7DEB780E990E020E4FC01E5
:10045000208381E990E02BE0FC01208360E070E0E4
:10046000CB010E9480010000DF91CF910895CF93CE
:10047000DF93CDB7DEB780E990E0FC01108281E91F
:1004800090E0FC0110820000DF91CF910895CF939E
:10049000DF93CDB7DEB780911D0190911E01CC0195
:1004A000A0E0B0E040E050E029E030E0841B950B94
:1004B0002817390708F4DEC08A5B9F4FFC010C94B3
:1004C000DE0382E090E090931E0180931D01D3C073
:1004D00080911C01823039F483E090E090931E01FA
:1004E00080931D01C8C082E090E090931E0180932C
:1004F0001D01C1C080911C01823039F484E090E07C
:1005000090931E0180931D01B6C080911C01843020
:1005100039F482E090E090931E0180931D01ABC0FE
:1005200083E090E090931E0180931D01A4C0809110
:100530001C01823039F485E090E090931E01809395
:100540001D0199C080911C01843039F483E090E052
:1005500090931E0180931D018EC084E090E09093E3
:100560001E0180931D0187C080911C01823039F4E7
:1005700086E090E090931E0180931D017CC08091E5
:100580001C01843039F484E090E090931E01809344
:100590001D0171C085E090E090931E0180931D01C4
:1005A0006AC080911C01823039F487E090E090931A
:1005B0001E0180931D015FC080911C01843039F4BD
:1005C00085E090E090931E0180931D0154C086E069
:1005D00090E090931E0180931D014DC080911C01FD
:1005E000823039F488E090E090931E0180931D01E1
:1005F00042C080911C01843039F486E090E09093F1
:100600001E0180931D0137C087E090E090931E018A
:1006100080931D0130C080911C01823039F489E043
:1006200090E090931E0180931D0125C080911C01D4
:10063000843039F487E090E090931E0180931D018F
:100640001AC088E090E090931E0180931D0113C0B2
:1006500080911C01843039F488E090E090931E0171
:1006600080931D0108C089E090E090931E01809363
:100670001D0101C0000080911D0190911E01CC015F
:10068000A0E0B0E042E050E027E030E0841B950BB2
:1006900028173907E8F1805B9F4FFC010C94DE03BB
:1006A00064EA70ED82E893E40E94800132C06BE757
:1006B00074ED82E993E40E9480012BC064EA70ED3E
:1006C00084EA93E40E94800124C061E77DE98EEA18
:1006D00093E40E9480011DC060E070E084EC93E42C
:1006E0000E94800116C060E070E08CED93E40E94EF
:1006F00080010FC064EA70EF86EF93E40E948001EE
:1007000008C060E070ED82E094E40E94800101C0C6
:1007100000000000DF91CF910895CF93DF93CDB714
:10072000DEB781E290E0FC01108282E290E02FEFE0
:10073000FC01208384E290E02FEFFC01208385E21E
:1007400090E0FC01108268EC70E080E090E00E9494
:1007500052010E94A2000E94200210921E011092DB
:100760001D0180E290E0FC018081809580931C0156
:100770000000809112018823E1F310921201809110
:100780001C01813071F480911701882321F481E0EC
:100790008093170106C080911701813011F41092E7
:1007A000170180911701882319F00E944702D9CFC1
:1007B00060E070E0CB010E948001D3CFEE0FFF1FFD
:1007C0000024001C0BBE0790F691E02D09940E94B6
:1007D000940408F481E008950E9400040C94CF046E
:1007E0000E94C80458F00E94C10440F029F45F3F01
:1007F00029F00C94B80451110C9403050C94BE0418
:100800000E94E00468F39923B1F3552391F3951BFB
:10081000550BBB27AA2762177307840738F09F5F21
:100820005F4F220F331F441FAA1FA9F335D00E2E8E
:100830003AF0E0E832D091505040E695001CCAF7FB
:100840002BD0FE2F29D0660F771F881FBB1F2617BE
:1008500037074807AB07B0E809F0BB0B802DBF0195
:10086000FF2793585F4F3AF09E3F510578F00C9464
:10087000B8040C9403055F3FE4F3983ED4F38695E7
:1008800077956795B795F7959F5FC9F7880F911D85
:100890009695879597F90895E1E0660F771F881F71
:1008A000BB1F621773078407BA0720F0621B730B24
:1008B000840BBA0BEE1F88F7E09508950E9465043B
:1008C0006894B1110C94030508950E94E80488F01F
:1008D0009F5798F0B92F9927B751B0F0E1F0660F04
:1008E000771F881F991F1AF0BA95C9F714C0B13045
:1008F00091F00E940205B1E008950C940205672F63
:10090000782F8827B85F39F0B93FCCF38695779573
:100910006795B395D9F73EF490958095709561955C
:100920007F4F8F4F9F4F0895990F0008550FAA0BC7
:10093000E0E8FEEF16161706E807F907C0F01216F2
:100940001306E407F50798F0621B730B840B950BF5
:1009500039F40A2661F0232B242B252B21F408954A
:100960000A2609F4A140A6958FEF811D811D0895E7
:1009700097F99F6780E870E060E008959FEF80EC52
:10098000089500240A9416161706180609060895F5
:1009900000240A9412161306140605060895092E5B
:1009A0000394000C11F4882352F0BB0F40F4BF2BCA
:1009B00011F460FF04C06F5F7F4F8F4F9F4F08950A
:1009C00057FD9058440F551F59F05F3F71F0479500
:1009D000880F97FB991F61F09F3F79F087950895E5
:1009E000121613061406551FF2CF4695F1DF08C004
:1009F000161617061806991FF1CF86957105610521
:100A000008940895E894BB2766277727CB0197F9C8
:100A100008950E94940408F48FEF08950E94210520
:100A20000C94CF040E94C10438F00E94C80420F046
:100A3000952311F00C94B8040C94BE0411240C946A
:100A400003050E94E00470F3959FC1F3950F50E0F9
:100A5000551F629FF001729FBB27F00DB11D639F70
:100A6000AA27F00DB11DAA1F649F6627B00DA11D16
:100A7000661F829F2227B00DA11D621F739FB00DBC
:100A8000A11D621F839FA00D611D221F749F33272C
:100A9000A00D611D231F849F600D211D822F762FC5
:100AA0006A2F11249F5750409AF0F1F088234AF0A2
:100AB000EE0FFF1FBB1F661F771F881F915050400E
:100AC000A9F79E3F510580F00C94B8040C940305DF
:100AD0005F3FE4F3983ED4F3869577956795B79595
:100AE000F795E7959F5FC1F7FE2B880F911D9695AF
:0A0AF000879597F90895F894FFCF59
:100AFA000000000200000000790000000000010070
:020B0A000000E9
:00000001FF
