:100000000C9446000C9465000C9465000C946500FB
:100010000C9465000C9465000C9465000C946500CC
:100020000C9465000C9465000C9465000C946500BC
:100030000C9465000C94DE000C9465000C94650033
:100040000C9465000C9465000C9465000C9465009C
:100050000C9465000C9465000C9465000C9465008C
:100060000C9465000C9465000C9465000C9465007C
:100070000C9465000C9465000C9465000C9465006C
:100080000C9465000C9465000C94650011241FBE4F
:10009000CFEFD0E4DEBFCDBF11E0A0E0B1E0EAE7F2
:1000A000F9E000E00BBF02C007900D92A233B10748
:1000B000D9F721E0A2E3B1E001C01D92A034B2075C
:1000C000E1F70E94F0020C94BB040C940000CF9363
:1000D000DF9300D01F92CDB7DEB789837B836A831D
:1000E00089818A3031F48A819B81BC018DE00E9434
:1000F000670080EC90E0FC018081882F90E08072A6
:100100009927892BB1F386EC90E02981FC012083AB
:1001100080E090E00F900F900F90DF91CF910895C5
:10012000CF93DF93CDB7DEB781E890E02BE0FC0101
:10013000208388E890E02DE730E0FC0131832083C4
:100140008FE690E022E0FC01208384E890E0FC014F
:100150001182108280910E0190910F01A0911001E7
:10016000B09111018093330190933401A093350134
:10017000B09336018FE590E02FE530E0F901208162
:100180002068FC0120830000DF91CF910895CF9378
:10019000DF93CDB7DEB781E890E0FC01108200006C
:1001A000DF91CF910895CF93DF93CDB7DEB781E094
:1001B000809332010000DF91CF9108951F920F923A
:1001C00000905F000F92112400905B000F922F931C
:1001D0003F934F935F936F937F938F939F93AF93CF
:1001E000BF93EF93FF93CF93DF93CDB7DEB78091AB
:1001F000330190913401A0913501B09136010197FE
:10020000A109B1098093330190933401A093350182
:10021000B09336018091330190913401A091350162
:10022000B0913601892B8A2B8B2B91F40E94D3003D
:1002300080910E0190910F01A0911001B0911101D8
:100240008093330190933401A0933501B09336012C
:100250000000DF91CF91FF91EF91BF91AF919F91FE
:100260008F917F916F915F914F913F912F910F905F
:1002700000925B000F9000925F000F901F90189506
:10028000CF93DF9300D000D0CDB7DEB769837A83F8
:100290008B839C8389819A81AB81BC8180930E0181
:1002A00090930F01A0931001B093110180910E0162
:1002B00090910F01A0911001B09111018093330131
:1002C00090933401A0933501B093360100000F9054
:1002D0000F900F900F90DF91CF9108950F931F9380
:1002E000CF93DF9300D000D0CDB7DEB769837A8398
:1002F0008B839C838091390190913A01A0913B01BD
:10030000B0913C019C01AD0169817A818B819C8116
:100310000E942703882309F477C020E030E0A90178
:1003200069817A818B819C810E942703882351F403
:1003300081E990E021E930E0F90120812870FC0199
:10034000208309C081E990E021E930E0F9012081B2
:100350002360FC01208328E539E344E75FE36981FA
:100360007A818B819C810E942703882344F488E949
:1003700090E02FEF3FEFFC013183208334C020E079
:1003800034E244EF56E469817A818B819C810E943A
:100390004904181634F488E990E0FC0111821082B7
:1003A00022C008E910E020E030E040E053E4698139
:1003B0007A818B819C810E944E04DC01CB019C01DF
:1003C000AD0160E074E284EF9AE40E942C03DC014A
:1003D000CB01BC01CD010E949E03DC01CB01019742
:1003E000F8019183808384E990E0FC0111821082FE
:1003F00089819A81AB81BC818093390190933A01C4
:10040000A0933B01B0933C0100000F900F900F9020
:100410000F90DF91CF911F910F910895CF93DF93AC
:10042000CDB7DEB780E990E020E4FC01208381E9CC
:1004300090E02BE0FC01208360E070E0CB010E94A3
:100440006E010000DF91CF910895CF93DF93CDB778
:10045000DEB780E990E0FC01108281E990E0FC01C8
:1004600010820000DF91CF910895CF93DF93CDB735
:10047000DEB780913E0190913F018130910569F096
:100480008130910518F0029741F147C081E090E07A
:1004900090933F0180933E0140C080913D018130A7
:1004A00071F480913701882321F481E08093370132
:1004B00006C080913701813011F41092370180918C
:1004C0003701882319F082E090E002C081E090E0DB
:1004D00090933F0180933E0120C080913D01813087
:1004E00071F480913701882321F481E080933701F2
:1004F00006C080913701813011F41092370180914C
:100500003701882319F082E090E002C081E090E09A
:1005100090933F0180933E01000080913E019091B5
:100520003F018130910539F08130910508F453C0C5
:10053000029711F151C080913D01823051F48091B8
:100540003801873098F4809138018F5F80933801AB
:100550000DC080913D01843049F480913801882399
:1005600029F08091380181508093380160E070E07B
:10057000CB010E946E0130C080913D01823051F468
:1005800080913801873098F4809138018F5F809393
:1005900038010DC080913D01843049F480913801CB
:1005A000882329F08091380181508093380180910F
:1005B0003801882F90E0880F991F880F991F8E5E51
:1005C0009E4FFC0180819181A281B381BC01CD014C
:1005D0000E946E0101C000000000DF91CF910895DC
:1005E000CF93DF93CDB7DEB781E290E0FC011082BC
:1005F00082E290E02FEFFC01208384E290E02FEF75
:10060000FC01208385E290E0FC01108268EC70E040
:1006100080E090E00E9440010E9490000E940E0243
:1006200010923F0110923E011092370180E290E05B
:10063000FC018081809580933D0100008091320112
:100640008823E1F3109232010E943502EFCF0E941D
:10065000D40308F481E008950E9440030C940F0431
:100660000E94080458F00E94010440F029F45F3F02
:1006700029F00C94F80351110C9443040C94FE03DC
:100680000E94200468F39923B1F3552391F3951B3D
:10069000550BBB27AA2762177307840738F09F5FA3
:1006A0005F4F220F331F441FAA1FA9F335D00E2E10
:1006B0003AF0E0E832D091505040E695001CCAF77D
:1006C0002BD0FE2F29D0660F771F881FBB1F261740
:1006D00037074807AB07B0E809F0BB0B802DBF0117
:1006E000FF2793585F4F3AF09E3F510578F00C94E6
:1006F000F8030C9443045F3FE4F3983ED4F38695EB
:1007000077956795B795F7959F5FC9F7880F911D06
:100710009695879597F90895E1E0660F771F881FF2
:10072000BB1F621773078407BA0720F0621B730BA5
:10073000840BBA0BEE1F88F7E09508950E94A5037D
:100740006894B1110C94430408950E94280488F021
:100750009F5798F0B92F9927B751B0F0E1F0660F85
:10076000771F881F991F1AF0BA95C9F714C0B130C6
:1007700091F00E944204B1E008950C944204672F66
:10078000782F8827B85F39F0B93FCCF386957795F5
:100790006795B395D9F73EF49095809570956195DE
:1007A0007F4F8F4F9F4F0895990F0008550FAA0B49
:1007B000E0E8FEEF16161706E807F907C0F0121674
:1007C0001306E407F50798F0621B730B840B950B77
:1007D00039F40A2661F0232B242B252B21F40895CC
:1007E0000A2609F4A140A6958FEF811D811D089569
:1007F00097F99F6780E870E060E008959FEF80ECD4
:10080000089500240A941616170618060906089576
:1008100000240A9412161306140605060895092EDC
:100820000394000C11F4882352F0BB0F40F4BF2B4B
:1008300011F460FF04C06F5F7F4F8F4F9F4F08958B
:1008400057FD9058440F551F59F05F3F71F0479581
:10085000880F97FB991F61F09F3F79F08795089566
:10086000121613061406551FF2CF4695F1DF08C085
:10087000161617061806991FF1CF869571056105A2
:1008800008940895E894BB2766277727CB0197F94A
:1008900008950E94D40308F48FEF08950E94610424
:1008A0000C940F040E94010438F00E94080420F008
:1008B000952311F00C94F8030C94FE0311240C946E
:1008C00043040E94200470F3959FC1F3950F50E0FC
:1008D000551F629FF001729FBB27F00DB11D639FF2
:1008E000AA27F00DB11DAA1F649F6627B00DA11D98
:1008F000661F829F2227B00DA11D621F739FB00D3E
:10090000A11D621F839FA00D611D221F749F3327AD
:10091000A00D611D231F849F600D211D822F762F46
:100920006A2F11249F5750409AF0F1F088234AF023
:10093000EE0FFF1FBB1F661F771F881F915050408F
:10094000A9F79E3F510580F00C94F8030C944304E2
:100950005F3FE4F3983ED4F3869577956795B79516
:10096000F795E7959F5FC1F7FE2B880F911D969530
:0A097000879597F90895F894FFCFDA
:10097A000000000200000000670000000000010003
:10098A000000A4D082437BD49243A4D0A443719D97
:10099A00AE430000C4430000DC43A4F0F64300D099
:0209AA00024405
:00000001FF
